{
  "address": "0x5a1363E83699F707340bA3b7132135489752Be59",
  "abi": [
    {
      "inputs": [
        {
          "internalType": "string",
          "name": "_greeting",
          "type": "string"
        }
      ],
      "stateMutability": "nonpayable",
      "type": "constructor"
    },
    {
      "inputs": [
        {
          "internalType": "uint256",
          "name": "x",
          "type": "uint256"
        },
        {
          "internalType": "uint256",
          "name": "y",
          "type": "uint256"
        }
      ],
      "name": "add",
      "outputs": [
        {
          "internalType": "uint256",
          "name": "",
          "type": "uint256"
        }
      ],
      "stateMutability": "pure",
      "type": "function"
    },
    {
      "inputs": [],
      "name": "greet",
      "outputs": [
        {
          "internalType": "string",
          "name": "",
          "type": "string"
        }
      ],
      "stateMutability": "view",
      "type": "function"
    },
    {
      "inputs": [
        {
          "internalType": "string",
          "name": "_greeting",
          "type": "string"
        }
      ],
      "name": "setGreeting",
      "outputs": [],
      "stateMutability": "nonpayable",
      "type": "function"
    },
    {
      "inputs": [
        {
          "internalType": "uint256",
          "name": "x",
          "type": "uint256"
        },
        {
          "internalType": "uint256",
          "name": "y",
          "type": "uint256"
        }
      ],
      "name": "sub",
      "outputs": [
        {
          "internalType": "int256",
          "name": "",
          "type": "int256"
        }
      ],
      "stateMutability": "pure",
      "type": "function"
    },
    {
      "inputs": [],
      "name": "testSumArray",
      "outputs": [
        {
          "internalType": "bool",
          "name": "",
          "type": "bool"
        }
      ],
      "stateMutability": "pure",
      "type": "function"
    }
  ],
  "transactionHash": "0xada1845feceb562613218d1dc721ec885e6801e9fdfb2a58a13321d6ee7f4883",
  "args": [
    "Hello"
  ],
  "solcInputHash": "12d1b748fef78f6a285e8defb895d485",
  "bytecode": "0x60806040523480156200001157600080fd5b506040516200113f3803806200113f833981810160405281019062000037919062000278565b620000676040518060600160405280602281526020016200111d60229139826200008760201b620004731760201c565b80600090805190602001906200007f92919062000156565b5050620004c5565b620001298282604051602401620000a0929190620002fe565b6040516020818303038152906040527f4b5c4277000000000000000000000000000000000000000000000000000000007bffffffffffffffffffffffffffffffffffffffffffffffffffffffff19166020820180517bffffffffffffffffffffffffffffffffffffffffffffffffffffffff83818316178352505050506200012d60201b60201c565b5050565b60008151905060006a636f6e736f6c652e6c6f679050602083016000808483855afa5050505050565b8280546200016490620003ea565b90600052602060002090601f016020900481019282620001885760008555620001d4565b82601f10620001a357805160ff1916838001178555620001d4565b82800160010185558215620001d4579182015b82811115620001d3578251825591602001919060010190620001b6565b5b509050620001e39190620001e7565b5090565b5b8082111562000202576000816000905550600101620001e8565b5090565b60006200021d620002178462000362565b62000339565b9050828152602081018484840111156200023657600080fd5b62000243848285620003b4565b509392505050565b600082601f8301126200025d57600080fd5b81516200026f84826020860162000206565b91505092915050565b6000602082840312156200028b57600080fd5b600082015167ffffffffffffffff811115620002a657600080fd5b620002b4848285016200024b565b91505092915050565b6000620002ca8262000398565b620002d68185620003a3565b9350620002e8818560208601620003b4565b620002f381620004b4565b840191505092915050565b600060408201905081810360008301526200031a8185620002bd565b90508181036020830152620003308184620002bd565b90509392505050565b60006200034562000358565b905062000353828262000420565b919050565b6000604051905090565b600067ffffffffffffffff82111562000380576200037f62000485565b5b6200038b82620004b4565b9050602081019050919050565b600081519050919050565b600082825260208201905092915050565b60005b83811015620003d4578082015181840152602081019050620003b7565b83811115620003e4576000848401525b50505050565b600060028204905060018216806200040357607f821691505b602082108114156200041a576200041962000456565b5b50919050565b6200042b82620004b4565b810181811067ffffffffffffffff821117156200044d576200044c62000485565b5b80604052505050565b7f4e487b7100000000000000000000000000000000000000000000000000000000600052602260045260246000fd5b7f4e487b7100000000000000000000000000000000000000000000000000000000600052604160045260246000fd5b6000601f19601f8301169050919050565b610c4880620004d56000396000f3fe608060405234801561001057600080fd5b50600436106100575760003560e01c806370def6031461005c578063771602f71461007a578063a4136862146100aa578063b67d77c5146100c6578063cfae3217146100f6575b600080fd5b610064610114565b60405161007191906107da565b60405180910390f35b610094600480360381019061008f9190610738565b6102ee565b6040516100a191906108b5565b60405180910390f35b6100c460048036038101906100bf91906106f7565b610304565b005b6100e060048036038101906100db9190610738565b6103cb565b6040516100ed91906107f5565b60405180910390f35b6100fe6103e1565b60405161010b9190610810565b60405180910390f35b600080600367ffffffffffffffff811115610158577f4e487b7100000000000000000000000000000000000000000000000000000000600052604160045260246000fd5b6040519080825280602002602001820160405280156101865781602001602082028036833780820191505090505b5090506001816000815181106101c5577f4e487b7100000000000000000000000000000000000000000000000000000000600052603260045260246000fd5b60200260200101818152505060028160018151811061020d577f4e487b7100000000000000000000000000000000000000000000000000000000600052603260045260246000fd5b602002602001018181525050600381600281518110610255577f4e487b7100000000000000000000000000000000000000000000000000000000600052603260045260246000fd5b6020026020010181815250506000805b82518110156102cf578281815181106102a7577f4e487b7100000000000000000000000000000000000000000000000000000000600052603260045260246000fd5b6020026020010151826102ba9190610942565b915080806102c790610af1565b915050610265565b5060068114156102e4576001925050506102eb565b6000925050505b90565b600081836102fc9190610942565b905092915050565b6103b1604051806060016040528060238152602001610bf0602391396000805461032d90610a8e565b80601f016020809104026020016040519081016040528092919081815260200182805461035990610a8e565b80156103a65780601f1061037b576101008083540402835291602001916103a6565b820191906000526020600020905b81548152906001019060200180831161038957829003601f168201915b50505050508361050f565b80600090805190602001906103c79291906105d7565b5050565b600081836103d99190610998565b905092915050565b6060600080546103f090610a8e565b80601f016020809104026020016040519081016040528092919081815260200182805461041c90610a8e565b80156104695780601f1061043e57610100808354040283529160200191610469565b820191906000526020600020905b81548152906001019060200180831161044c57829003601f168201915b5050505050905090565b61050b8282604051602401610489929190610832565b6040516020818303038152906040527f4b5c4277000000000000000000000000000000000000000000000000000000007bffffffffffffffffffffffffffffffffffffffffffffffffffffffff19166020820180517bffffffffffffffffffffffffffffffffffffffffffffffffffffffff83818316178352505050506105ae565b5050565b6105a983838360405160240161052793929190610869565b6040516020818303038152906040527f2ced7cef000000000000000000000000000000000000000000000000000000007bffffffffffffffffffffffffffffffffffffffffffffffffffffffff19166020820180517bffffffffffffffffffffffffffffffffffffffffffffffffffffffff83818316178352505050506105ae565b505050565b60008151905060006a636f6e736f6c652e6c6f679050602083016000808483855afa5050505050565b8280546105e390610a8e565b90600052602060002090601f016020900481019282610605576000855561064c565b82601f1061061e57805160ff191683800117855561064c565b8280016001018555821561064c579182015b8281111561064b578251825591602001919060010190610630565b5b509050610659919061065d565b5090565b5b8082111561067657600081600090555060010161065e565b5090565b600061068d610688846108f5565b6108d0565b9050828152602081018484840111156106a557600080fd5b6106b0848285610a4c565b509392505050565b600082601f8301126106c957600080fd5b81356106d984826020860161067a565b91505092915050565b6000813590506106f181610bd8565b92915050565b60006020828403121561070957600080fd5b600082013567ffffffffffffffff81111561072357600080fd5b61072f848285016106b8565b91505092915050565b6000806040838503121561074b57600080fd5b6000610759858286016106e2565b925050602061076a858286016106e2565b9150509250929050565b61077d81610a2c565b82525050565b61078c81610a38565b82525050565b600061079d82610926565b6107a78185610931565b93506107b7818560208601610a5b565b6107c081610bc7565b840191505092915050565b6107d481610a42565b82525050565b60006020820190506107ef6000830184610774565b92915050565b600060208201905061080a6000830184610783565b92915050565b6000602082019050818103600083015261082a8184610792565b905092915050565b6000604082019050818103600083015261084c8185610792565b905081810360208301526108608184610792565b90509392505050565b600060608201905081810360008301526108838186610792565b905081810360208301526108978185610792565b905081810360408301526108ab8184610792565b9050949350505050565b60006020820190506108ca60008301846107cb565b92915050565b60006108da6108eb565b90506108e68282610ac0565b919050565b6000604051905090565b600067ffffffffffffffff8211156109105761090f610b98565b5b61091982610bc7565b9050602081019050919050565b600081519050919050565b600082825260208201905092915050565b600061094d82610a42565b915061095883610a42565b9250827fffffffffffffffffffffffffffffffffffffffffffffffffffffffffffffffff0382111561098d5761098c610b3a565b5b828201905092915050565b60006109a382610a38565b91506109ae83610a38565b9250827f8000000000000000000000000000000000000000000000000000000000000000018212600084121516156109e9576109e8610b3a565b5b827f7fffffffffffffffffffffffffffffffffffffffffffffffffffffffffffffff018213600084121615610a2157610a20610b3a565b5b828203905092915050565b60008115159050919050565b6000819050919050565b6000819050919050565b82818337600083830152505050565b60005b83811015610a79578082015181840152602081019050610a5e565b83811115610a88576000848401525b50505050565b60006002820490506001821680610aa657607f821691505b60208210811415610aba57610ab9610b69565b5b50919050565b610ac982610bc7565b810181811067ffffffffffffffff82111715610ae857610ae7610b98565b5b80604052505050565b6000610afc82610a42565b91507fffffffffffffffffffffffffffffffffffffffffffffffffffffffffffffffff821415610b2f57610b2e610b3a565b5b600182019050919050565b7f4e487b7100000000000000000000000000000000000000000000000000000000600052601160045260246000fd5b7f4e487b7100000000000000000000000000000000000000000000000000000000600052602260045260246000fd5b7f4e487b7100000000000000000000000000000000000000000000000000000000600052604160045260246000fd5b6000601f19601f8301169050919050565b610be181610a42565b8114610bec57600080fd5b5056fe4368616e67696e67206772656574696e672066726f6d202725732720746f2027257327a2646970667358221220f250d9d3142d6953996e3bb159374ec84e17d2858d71cc42b0cd089446592bc864736f6c634300080400334465706c6f79696e67206120477265657465722077697468206772656574696e673a",
  "devdoc": {
    "kind": "dev",
    "methods": {},
    "version": 1
  },
  "userdoc": {
    "kind": "user",
    "methods": {},
    "version": 1
  },
  "storageLayout": {
    "storage": [
      {
        "astId": 4,
        "contract": "contracts/Greeter.sol:Greeter",
        "label": "greeting",
        "offset": 0,
        "slot": "0",
        "type": "t_string_storage"
      }
    ],
    "types": {
      "t_string_storage": {
        "encoding": "bytes",
        "label": "string",
        "numberOfBytes": "32"
      }
    }
  }
}