{
  "address": "0xF036086393040dE2b55Fd2530728B723b77ea4AB",
  "abi": [
    {
      "inputs": [
        {
          "internalType": "address",
          "name": "fullteamTokenAddr",
          "type": "address"
        }
      ],
      "stateMutability": "nonpayable",
      "type": "constructor"
    },
    {
      "anonymous": false,
      "inputs": [
        {
          "indexed": true,
          "internalType": "address",
          "name": "previousOwner",
          "type": "address"
        },
        {
          "indexed": true,
          "internalType": "address",
          "name": "newOwner",
          "type": "address"
        }
      ],
      "name": "OwnershipTransferred",
      "type": "event"
    },
    {
      "inputs": [
        {
          "internalType": "uint256",
          "name": "amount",
          "type": "uint256"
        }
      ],
      "name": "deposit",
      "outputs": [],
      "stateMutability": "nonpayable",
      "type": "function"
    },
    {
      "inputs": [
        {
          "internalType": "address",
          "name": "user",
          "type": "address"
        }
      ],
      "name": "depositBalance",
      "outputs": [
        {
          "internalType": "uint256",
          "name": "",
          "type": "uint256"
        }
      ],
      "stateMutability": "view",
      "type": "function"
    },
    {
      "inputs": [],
      "name": "owner",
      "outputs": [
        {
          "internalType": "address",
          "name": "",
          "type": "address"
        }
      ],
      "stateMutability": "view",
      "type": "function"
    },
    {
      "inputs": [],
      "name": "renounceOwnership",
      "outputs": [],
      "stateMutability": "nonpayable",
      "type": "function"
    },
    {
      "inputs": [
        {
          "internalType": "address",
          "name": "newOwner",
          "type": "address"
        }
      ],
      "name": "transferOwnership",
      "outputs": [],
      "stateMutability": "nonpayable",
      "type": "function"
    },
    {
      "inputs": [
        {
          "internalType": "uint256",
          "name": "amount",
          "type": "uint256"
        }
      ],
      "name": "withdrawal",
      "outputs": [],
      "stateMutability": "nonpayable",
      "type": "function"
    }
  ],
  "transactionHash": "0xc1cc784936600402572308462dd55d938534eeae40759179b8b7a0c94f5d7b25",
  "args": [
    "0x0A2e46827a8a684F4A2bbAfF74d12E67ECb2D3A6"
  ],
  "solcInputHash": "74311df65fdd6884817a932ddbe20722",
  "bytecode": "0x608060405234801561001057600080fd5b50604051610e01380380610e0183398181016040528101906100329190610176565b61004e61004361009560201b60201c565b61009d60201b60201c565b80600160006101000a81548173ffffffffffffffffffffffffffffffffffffffff021916908373ffffffffffffffffffffffffffffffffffffffff160217905550506101e8565b600033905090565b60008060009054906101000a900473ffffffffffffffffffffffffffffffffffffffff169050816000806101000a81548173ffffffffffffffffffffffffffffffffffffffff021916908373ffffffffffffffffffffffffffffffffffffffff1602179055508173ffffffffffffffffffffffffffffffffffffffff168173ffffffffffffffffffffffffffffffffffffffff167f8be0079c531659141344cd1fd0a4f28419497f9722a3daafe3b4186f6b6457e060405160405180910390a35050565b600081519050610170816101d1565b92915050565b60006020828403121561018857600080fd5b600061019684828501610161565b91505092915050565b60006101aa826101b1565b9050919050565b600073ffffffffffffffffffffffffffffffffffffffff82169050919050565b6101da8161019f565b81146101e557600080fd5b50565b610c0a806101f76000396000f3fe608060405234801561001057600080fd5b50600436106100625760003560e01c8063715018a614610067578063835fc6ca146100715780638da5cb5b1461008d578063956501bb146100ab578063b6b55f25146100db578063f2fde38b146100f7575b600080fd5b61006f610113565b005b61008b60048036038101906100869190610836565b61019b565b005b6100956103f9565b6040516100a291906108e6565b60405180910390f35b6100c560048036038101906100c091906107e4565b610422565b6040516100d291906109c1565b60405180910390f35b6100f560048036038101906100f09190610836565b61046b565b005b610111600480360381019061010c91906107e4565b6105b5565b005b61011b6106ad565b73ffffffffffffffffffffffffffffffffffffffff166101396103f9565b73ffffffffffffffffffffffffffffffffffffffff161461018f576040517f08c379a0000000000000000000000000000000000000000000000000000000008152600401610186906109a1565b60405180910390fd5b61019960006106b5565b565b6000600260003373ffffffffffffffffffffffffffffffffffffffff1673ffffffffffffffffffffffffffffffffffffffff168152602001908152602001600020541161021d576040517f08c379a000000000000000000000000000000000000000000000000000000000815260040161021490610961565b60405180910390fd5b600081600260003373ffffffffffffffffffffffffffffffffffffffff1673ffffffffffffffffffffffffffffffffffffffff168152602001908152602001600020541061026d578190506102b0565b600260003373ffffffffffffffffffffffffffffffffffffffff1673ffffffffffffffffffffffffffffffffffffffff1681526020019081526020016000205490505b600160009054906101000a900473ffffffffffffffffffffffffffffffffffffffff1673ffffffffffffffffffffffffffffffffffffffff1663a9059cbb33846040518363ffffffff1660e01b815260040161030d929190610938565b602060405180830381600087803b15801561032757600080fd5b505af115801561033b573d6000803e3d6000fd5b505050506040513d601f19601f8201168201806040525081019061035f919061080d565b506103b282600260003373ffffffffffffffffffffffffffffffffffffffff1673ffffffffffffffffffffffffffffffffffffffff1681526020019081526020016000205461077990919063ffffffff16565b600260003373ffffffffffffffffffffffffffffffffffffffff1673ffffffffffffffffffffffffffffffffffffffff168152602001908152602001600020819055505050565b60008060009054906101000a900473ffffffffffffffffffffffffffffffffffffffff16905090565b6000600260008373ffffffffffffffffffffffffffffffffffffffff1673ffffffffffffffffffffffffffffffffffffffff168152602001908152602001600020549050919050565b600160009054906101000a900473ffffffffffffffffffffffffffffffffffffffff1673ffffffffffffffffffffffffffffffffffffffff166323b872dd3330846040518463ffffffff1660e01b81526004016104ca93929190610901565b602060405180830381600087803b1580156104e457600080fd5b505af11580156104f8573d6000803e3d6000fd5b505050506040513d601f19601f8201168201806040525081019061051c919061080d565b5061056f81600260003373ffffffffffffffffffffffffffffffffffffffff1673ffffffffffffffffffffffffffffffffffffffff1681526020019081526020016000205461078f90919063ffffffff16565b600260003373ffffffffffffffffffffffffffffffffffffffff1673ffffffffffffffffffffffffffffffffffffffff1681526020019081526020016000208190555050565b6105bd6106ad565b73ffffffffffffffffffffffffffffffffffffffff166105db6103f9565b73ffffffffffffffffffffffffffffffffffffffff1614610631576040517f08c379a0000000000000000000000000000000000000000000000000000000008152600401610628906109a1565b60405180910390fd5b600073ffffffffffffffffffffffffffffffffffffffff168173ffffffffffffffffffffffffffffffffffffffff1614156106a1576040517f08c379a000000000000000000000000000000000000000000000000000000000815260040161069890610981565b60405180910390fd5b6106aa816106b5565b50565b600033905090565b60008060009054906101000a900473ffffffffffffffffffffffffffffffffffffffff169050816000806101000a81548173ffffffffffffffffffffffffffffffffffffffff021916908373ffffffffffffffffffffffffffffffffffffffff1602179055508173ffffffffffffffffffffffffffffffffffffffff168173ffffffffffffffffffffffffffffffffffffffff167f8be0079c531659141344cd1fd0a4f28419497f9722a3daafe3b4186f6b6457e060405160405180910390a35050565b600081836107879190610a43565b905092915050565b6000818361079d91906109ed565b905092915050565b6000813590506107b481610b8f565b92915050565b6000815190506107c981610ba6565b92915050565b6000813590506107de81610bbd565b92915050565b6000602082840312156107f657600080fd5b6000610804848285016107a5565b91505092915050565b60006020828403121561081f57600080fd5b600061082d848285016107ba565b91505092915050565b60006020828403121561084857600080fd5b6000610856848285016107cf565b91505092915050565b61086881610a77565b82525050565b600061087b6014836109dc565b915061088682610aee565b602082019050919050565b600061089e6026836109dc565b91506108a982610b17565b604082019050919050565b60006108c16020836109dc565b91506108cc82610b66565b602082019050919050565b6108e081610ab5565b82525050565b60006020820190506108fb600083018461085f565b92915050565b6000606082019050610916600083018661085f565b610923602083018561085f565b61093060408301846108d7565b949350505050565b600060408201905061094d600083018561085f565b61095a60208301846108d7565b9392505050565b6000602082019050818103600083015261097a8161086e565b9050919050565b6000602082019050818103600083015261099a81610891565b9050919050565b600060208201905081810360008301526109ba816108b4565b9050919050565b60006020820190506109d660008301846108d7565b92915050565b600082825260208201905092915050565b60006109f882610ab5565b9150610a0383610ab5565b9250827fffffffffffffffffffffffffffffffffffffffffffffffffffffffffffffffff03821115610a3857610a37610abf565b5b828201905092915050565b6000610a4e82610ab5565b9150610a5983610ab5565b925082821015610a6c57610a6b610abf565b5b828203905092915050565b6000610a8282610a95565b9050919050565b60008115159050919050565b600073ffffffffffffffffffffffffffffffffffffffff82169050919050565b6000819050919050565b7f4e487b7100000000000000000000000000000000000000000000000000000000600052601160045260246000fd5b7f696e76616c696420757365722062616c616e6365000000000000000000000000600082015250565b7f4f776e61626c653a206e6577206f776e657220697320746865207a65726f206160008201527f6464726573730000000000000000000000000000000000000000000000000000602082015250565b7f4f776e61626c653a2063616c6c6572206973206e6f7420746865206f776e6572600082015250565b610b9881610a77565b8114610ba357600080fd5b50565b610baf81610a89565b8114610bba57600080fd5b50565b610bc681610ab5565b8114610bd157600080fd5b5056fea26469706673582212209cafdff718c4bc6c7221207ab3aeb967f2b6a03d92b923618967d58513b054f364736f6c63430008040033",
  "devdoc": {
    "kind": "dev",
    "methods": {
      "owner()": {
        "details": "Returns the address of the current owner."
      },
      "renounceOwnership()": {
        "details": "Leaves the contract without owner. It will not be possible to call `onlyOwner` functions anymore. Can only be called by the current owner. NOTE: Renouncing ownership will leave the contract without an owner, thereby removing any functionality that is only available to the owner."
      },
      "transferOwnership(address)": {
        "details": "Transfers ownership of the contract to a new account (`newOwner`). Can only be called by the current owner."
      }
    },
    "version": 1
  },
  "userdoc": {
    "kind": "user",
    "methods": {},
    "version": 1
  },
  "storageLayout": {
    "storage": [
      {
        "astId": 7,
        "contract": "contracts/MiniChef.sol:MiniChef",
        "label": "_owner",
        "offset": 0,
        "slot": "0",
        "type": "t_address"
      },
      {
        "astId": 528,
        "contract": "contracts/MiniChef.sol:MiniChef",
        "label": "_fullteamToken",
        "offset": 0,
        "slot": "1",
        "type": "t_contract(IERC20)181"
      },
      {
        "astId": 532,
        "contract": "contracts/MiniChef.sol:MiniChef",
        "label": "userAmount",
        "offset": 0,
        "slot": "2",
        "type": "t_mapping(t_address,t_uint256)"
      }
    ],
    "types": {
      "t_address": {
        "encoding": "inplace",
        "label": "address",
        "numberOfBytes": "20"
      },
      "t_contract(IERC20)181": {
        "encoding": "inplace",
        "label": "contract IERC20",
        "numberOfBytes": "20"
      },
      "t_mapping(t_address,t_uint256)": {
        "encoding": "mapping",
        "key": "t_address",
        "label": "mapping(address => uint256)",
        "numberOfBytes": "32",
        "value": "t_uint256"
      },
      "t_uint256": {
        "encoding": "inplace",
        "label": "uint256",
        "numberOfBytes": "32"
      }
    }
  }
}